{
  "contractName": "AcademicRecordManagement",
  "abi": [
    {
      "anonymous": false,
      "inputs": [
        {
          "indexed": false,
          "internalType": "address",
          "name": "studentAddress",
          "type": "address"
        },
        {
          "indexed": false,
          "internalType": "string",
          "name": "courseCode",
          "type": "string"
        }
      ],
      "name": "CourseRegistered",
      "type": "event"
    },
    {
      "anonymous": false,
      "inputs": [
        {
          "indexed": false,
          "internalType": "address",
          "name": "lecturerAddress",
          "type": "address"
        },
        {
          "indexed": false,
          "internalType": "address",
          "name": "studentAddress",
          "type": "address"
        },
        {
          "indexed": false,
          "internalType": "string",
          "name": "courseCode",
          "type": "string"
        },
        {
          "indexed": false,
          "internalType": "string",
          "name": "finalGrade",
          "type": "string"
        }
      ],
      "name": "GradeUploaded",
      "type": "event"
    },
    {
      "anonymous": false,
      "inputs": [
        {
          "indexed": false,
          "internalType": "address",
          "name": "lecturerAddress",
          "type": "address"
        },
        {
          "indexed": false,
          "internalType": "string",
          "name": "staffID",
          "type": "string"
        }
      ],
      "name": "LecturerRegistered",
      "type": "event"
    },
    {
      "anonymous": false,
      "inputs": [
        {
          "indexed": false,
          "internalType": "address",
          "name": "studentAddress",
          "type": "address"
        },
        {
          "indexed": false,
          "internalType": "string",
          "name": "matriculationNumber",
          "type": "string"
        }
      ],
      "name": "StudentRegistered",
      "type": "event"
    },
    {
      "inputs": [
        {
          "internalType": "address",
          "name": "",
          "type": "address"
        }
      ],
      "name": "lecturers",
      "outputs": [
        {
          "internalType": "string",
          "name": "staffID",
          "type": "string"
        },
        {
          "internalType": "string",
          "name": "name",
          "type": "string"
        },
        {
          "internalType": "string",
          "name": "email",
          "type": "string"
        },
        {
          "internalType": "bool",
          "name": "isRegistered",
          "type": "bool"
        }
      ],
      "stateMutability": "view",
      "type": "function",
      "constant": true
    },
    {
      "inputs": [
        {
          "internalType": "string",
          "name": "",
          "type": "string"
        }
      ],
      "name": "matricToStudentAddress",
      "outputs": [
        {
          "internalType": "address",
          "name": "",
          "type": "address"
        }
      ],
      "stateMutability": "view",
      "type": "function",
      "constant": true
    },
    {
      "inputs": [
        {
          "internalType": "address",
          "name": "",
          "type": "address"
        },
        {
          "internalType": "string",
          "name": "",
          "type": "string"
        }
      ],
      "name": "studentGrades",
      "outputs": [
        {
          "internalType": "string",
          "name": "courseCode",
          "type": "string"
        },
        {
          "internalType": "uint256",
          "name": "testScore",
          "type": "uint256"
        },
        {
          "internalType": "uint256",
          "name": "examScore",
          "type": "uint256"
        },
        {
          "internalType": "uint256",
          "name": "totalScore",
          "type": "uint256"
        },
        {
          "internalType": "string",
          "name": "finalGrade",
          "type": "string"
        }
      ],
      "stateMutability": "view",
      "type": "function",
      "constant": true
    },
    {
      "inputs": [
        {
          "internalType": "address",
          "name": "",
          "type": "address"
        }
      ],
      "name": "students",
      "outputs": [
        {
          "internalType": "string",
          "name": "matriculationNumber",
          "type": "string"
        },
        {
          "internalType": "string",
          "name": "name",
          "type": "string"
        },
        {
          "internalType": "string",
          "name": "email",
          "type": "string"
        },
        {
          "internalType": "bool",
          "name": "isRegistered",
          "type": "bool"
        }
      ],
      "stateMutability": "view",
      "type": "function",
      "constant": true
    },
    {
      "inputs": [
        {
          "internalType": "string",
          "name": "_matriculationNumber",
          "type": "string"
        },
        {
          "internalType": "string",
          "name": "_name",
          "type": "string"
        },
        {
          "internalType": "string",
          "name": "_email",
          "type": "string"
        }
      ],
      "name": "registerStudent",
      "outputs": [],
      "stateMutability": "nonpayable",
      "type": "function"
    },
    {
      "inputs": [
        {
          "internalType": "string",
          "name": "_staffID",
          "type": "string"
        },
        {
          "internalType": "string",
          "name": "_name",
          "type": "string"
        },
        {
          "internalType": "string",
          "name": "_email",
          "type": "string"
        }
      ],
      "name": "registerLecturer",
      "outputs": [],
      "stateMutability": "nonpayable",
      "type": "function"
    },
    {
      "inputs": [
        {
          "internalType": "string",
          "name": "_courseCode",
          "type": "string"
        }
      ],
      "name": "registerCourse",
      "outputs": [],
      "stateMutability": "nonpayable",
      "type": "function"
    },
    {
      "inputs": [
        {
          "internalType": "string",
          "name": "_matriculationNumber",
          "type": "string"
        },
        {
          "internalType": "string",
          "name": "_courseCode",
          "type": "string"
        },
        {
          "internalType": "uint256",
          "name": "_testScore",
          "type": "uint256"
        },
        {
          "internalType": "uint256",
          "name": "_examScore",
          "type": "uint256"
        },
        {
          "internalType": "uint256",
          "name": "_totalScore",
          "type": "uint256"
        },
        {
          "internalType": "string",
          "name": "_finalGrade",
          "type": "string"
        }
      ],
      "name": "uploadGrade",
      "outputs": [],
      "stateMutability": "nonpayable",
      "type": "function"
    },
    {
      "inputs": [
        {
          "internalType": "string",
          "name": "_courseCode",
          "type": "string"
        }
      ],
      "name": "checkResult",
      "outputs": [
        {
          "internalType": "uint256",
          "name": "",
          "type": "uint256"
        },
        {
          "internalType": "uint256",
          "name": "",
          "type": "uint256"
        },
        {
          "internalType": "uint256",
          "name": "",
          "type": "uint256"
        },
        {
          "internalType": "string",
          "name": "",
          "type": "string"
        }
      ],
      "stateMutability": "view",
      "type": "function",
      "constant": true
    }
  ],
  "bytecode": "0x608060405234801561001057600080fd5b50611a73806100206000396000f3fe608060405234801561001057600080fd5b50600436106100935760003560e01c80636abbd3f7116100665780636abbd3f7146106e057806393e47f1514610784578063a6c807a914610932578063ed6a293914610a62578063fc92506014610b2257610093565b8063041fce7b14610098578063147487351461025a5780631de378ec1461040857806346834d1e146105af575b600080fd5b610258600480360360c08110156100ae57600080fd5b810190602081018135600160201b8111156100c857600080fd5b8201836020820111156100da57600080fd5b803590602001918460018302840111600160201b831117156100fb57600080fd5b91908080601f0160208091040260200160405190810160405280939291908181526020018383808284376000920191909152509295949360208101935035915050600160201b81111561014d57600080fd5b82018360208201111561015f57600080fd5b803590602001918460018302840111600160201b8311171561018057600080fd5b91908080601f0160208091040260200160405190810160405280939291908181526020018383808284376000920191909152509295843595602086013595604081013595509193509150608081019060600135600160201b8111156101e457600080fd5b8201836020820111156101f657600080fd5b803590602001918460018302840111600160201b8311171561021757600080fd5b91908080601f016020809104026020016040519081016040528093929190818152602001838380828437600092019190915250929550610b48945050505050565b005b6102586004803603606081101561027057600080fd5b810190602081018135600160201b81111561028a57600080fd5b82018360208201111561029c57600080fd5b803590602001918460018302840111600160201b831117156102bd57600080fd5b91908080601f0160208091040260200160405190810160405280939291908181526020018383808284376000920191909152509295949360208101935035915050600160201b81111561030f57600080fd5b82018360208201111561032157600080fd5b803590602001918460018302840111600160201b8311171561034257600080fd5b91908080601f0160208091040260200160405190810160405280939291908181526020018383808284376000920191909152509295949360208101935035915050600160201b81111561039457600080fd5b8201836020820111156103a657600080fd5b803590602001918460018302840111600160201b831117156103c757600080fd5b91908080601f016020809104026020016040519081016040528093929190818152602001838380828437600092019190915250929550610ea2945050505050565b6104bc6004803603604081101561041e57600080fd5b6001600160a01b038235169190810190604081016020820135600160201b81111561044857600080fd5b82018360208201111561045a57600080fd5b803590602001918460018302840111600160201b8311171561047b57600080fd5b91908080601f016020809104026020016040519081016040528093929190818152602001838380828437600092019190915250929550611058945050505050565b604051808060200186815260200185815260200184815260200180602001838103835288818151815260200191508051906020019080838360005b8381101561050f5781810151838201526020016104f7565b50505050905090810190601f16801561053c5780820380516001836020036101000a031916815260200191505b50838103825284518152845160209182019186019080838360005b8381101561056f578181015183820152602001610557565b50505050905090810190601f16801561059c5780820380516001836020036101000a031916815260200191505b5097505050505050505060405180910390f35b610653600480360360208110156105c557600080fd5b810190602081018135600160201b8111156105df57600080fd5b8201836020820111156105f157600080fd5b803590602001918460018302840111600160201b8311171561061257600080fd5b91908080601f0160208091040260200160405190810160405280939291908181526020018383808284376000920191909152509295506111be945050505050565b6040518085815260200184815260200183815260200180602001828103825283818151815260200191508051906020019080838360005b838110156106a257818101518382015260200161068a565b50505050905090810190601f1680156106cf5780820380516001836020036101000a031916815260200191505b509550505050505060405180910390f35b610258600480360360208110156106f657600080fd5b810190602081018135600160201b81111561071057600080fd5b82018360208201111561072257600080fd5b803590602001918460018302840111600160201b8311171561074357600080fd5b91908080601f016020809104026020016040519081016040528093929190818152602001838380828437600092019190915250929550611421945050505050565b6102586004803603606081101561079a57600080fd5b810190602081018135600160201b8111156107b457600080fd5b8201836020820111156107c657600080fd5b803590602001918460018302840111600160201b831117156107e757600080fd5b91908080601f0160208091040260200160405190810160405280939291908181526020018383808284376000920191909152509295949360208101935035915050600160201b81111561083957600080fd5b82018360208201111561084b57600080fd5b803590602001918460018302840111600160201b8311171561086c57600080fd5b91908080601f0160208091040260200160405190810160405280939291908181526020018383808284376000920191909152509295949360208101935035915050600160201b8111156108be57600080fd5b8201836020820111156108d057600080fd5b803590602001918460018302840111600160201b831117156108f157600080fd5b91908080601f016020809104026020016040519081016040528093929190818152602001838380828437600092019190915250929550611530945050505050565b6109586004803603602081101561094857600080fd5b50356001600160a01b0316611717565b604051808060200180602001806020018515158152602001848103845288818151815260200191508051906020019080838360005b838110156109a557818101518382015260200161098d565b50505050905090810190601f1680156109d25780820380516001836020036101000a031916815260200191505b50848103835287518152875160209182019189019080838360005b83811015610a055781810151838201526020016109ed565b50505050905090810190601f168015610a325780820380516001836020036101000a031916815260200191505b5084810382528651815286516020918201918801908083836000831561056f578181015183820152602001610557565b610b0660048036036020811015610a7857600080fd5b810190602081018135600160201b811115610a9257600080fd5b820183602082011115610aa457600080fd5b803590602001918460018302840111600160201b83111715610ac557600080fd5b91908080601f0160208091040260200160405190810160405280939291908181526020018383808284376000920191909152509295506118ee945050505050565b604080516001600160a01b039092168252519081900360200190f35b61095860048036036020811015610b3857600080fd5b50356001600160a01b0316611914565b3360009081526001602052604090206003015460ff16610baf576040805162461bcd60e51b815260206004820152601960248201527f4e6f7420612072656769737465726564206c6563747572657200000000000000604482015290519081900360640190fd5b60006002876040518082805190602001908083835b60208310610be35780518252601f199092019160209182019101610bc4565b51815160209384036101000a600019018019909216911617905292019485525060408051948590038201909420546001600160a01b0316600081815291829052939020600301549293505060ff9091169050610c7f576040805162461bcd60e51b815260206004820152601660248201527514dd1d59195b9d081b9bdd081c9959da5cdd195c995960521b604482015290519081900360640190fd5b6040518060a001604052808781526020018681526020018581526020018481526020018381525060036000836001600160a01b03166001600160a01b03168152602001908152602001600020876040518082805190602001908083835b60208310610cfb5780518252601f199092019160209182019101610cdc565b51815160209384036101000a6000190180199092169116179052920194855250604051938490038101909320845180519194610d3c9450859350019061197b565b506020828101516001830155604083015160028301556060830151600383015560808301518051610d73926004850192019061197b565b509050507ff91a5074d56d94c8d84bb17dfe9a625d45ff1e2248d33717eb1500091a70cb6b3382888560405180856001600160a01b03168152602001846001600160a01b031681526020018060200180602001838103835285818151815260200191508051906020019080838360005b83811015610dfb578181015183820152602001610de3565b50505050905090810190601f168015610e285780820380516001836020036101000a031916815260200191505b50838103825284518152845160209182019186019080838360005b83811015610e5b578181015183820152602001610e43565b50505050905090810190601f168015610e885780820380516001836020036101000a031916815260200191505b50965050505050505060405180910390a150505050505050565b3360009081526001602052604090206003015460ff1615610f0a576040805162461bcd60e51b815260206004820152601b60248201527f4c6563747572657220616c726561647920726567697374657265640000000000604482015290519081900360640190fd5b604080516080810182528481526020808201859052818301849052600160608301819052336000908152908252929092208151805192939192610f50928492019061197b565b506020828101518051610f69926001850192019061197b565b5060408201518051610f8591600284019160209091019061197b565b5060608201518160030160006101000a81548160ff0219169083151502179055509050507fe5438f3a6b5d89df19bf35dfee2aa60039b9278f4bbb8752d2a6c66f18c94180338460405180836001600160a01b0316815260200180602001828103825283818151815260200191508051906020019080838360005b83811015611018578181015183820152602001611000565b50505050905090810190601f1680156110455780820380516001836020036101000a031916815260200191505b50935050505060405180910390a1505050565b6003602090815260009283526040928390208251808401830180519281529083019383019390932092528154835160026001831615610100026000190190921691909104601f8101839004830282018301909452838152919283918301828280156111045780601f106110d957610100808354040283529160200191611104565b820191906000526020600020905b8154815290600101906020018083116110e757829003601f168201915b505050505090806001015490806002015490806003015490806004018054600181600116156101000203166002900480601f0160208091040260200160405190810160405280929190818152602001828054600181600116156101000203166002900480156111b45780601f10611189576101008083540402835291602001916111b4565b820191906000526020600020905b81548152906001019060200180831161119757829003601f168201915b5050505050905085565b336000908152602081905260408120600301548190819060609060ff16611227576040805162461bcd60e51b8152602060048201526018602482015277139bdd0818481c9959da5cdd195c9959081cdd1d59195b9d60421b604482015290519081900360640190fd5b61122f6119f9565b336000908152600360209081526040918290209151885189928291908401908083835b602083106112715780518252601f199092019160209182019101611252565b518151600019602094850361010090810a82019283169219939093169190911790925294909201968752604080519788900382018820805460c0601f600260018416159099029096019091169690960493840183900490920288018501905260a08701828152909550869450928592508401828280156113325780601f1061130757610100808354040283529160200191611332565b820191906000526020600020905b81548152906001019060200180831161131557829003601f168201915b50505050508152602001600182015481526020016002820154815260200160038201548152602001600482018054600181600116156101000203166002900480601f0160208091040260200160405190810160405280929190818152602001828054600181600116156101000203166002900480156113f25780601f106113c7576101008083540402835291602001916113f2565b820191906000526020600020905b8154815290600101906020018083116113d557829003601f168201915b505050505081525050905080602001518160400151826060015183608001519450945094509450509193509193565b3360009081526020819052604090206003015460ff16611483576040805162461bcd60e51b8152602060048201526018602482015277139bdd0818481c9959da5cdd195c9959081cdd1d59195b9d60421b604482015290519081900360640190fd5b7f64787721f76cb5a9db7d737fe332bb2da24a93784f99ffc2f335c38ef164fbfd338260405180836001600160a01b0316815260200180602001828103825283818151815260200191508051906020019080838360005b838110156114f25781810151838201526020016114da565b50505050905090810190601f16801561151f5780820380516001836020036101000a031916815260200191505b50935050505060405180910390a150565b3360009081526020819052604090206003015460ff1615611598576040805162461bcd60e51b815260206004820152601a60248201527f53747564656e7420616c72656164792072656769737465726564000000000000604482015290519081900360640190fd5b604080516080810182528481526020808201859052818301849052600160608301523360009081528082529290922081518051929391926115dc928492019061197b565b5060208281015180516115f5926001850192019061197b565b506040820151805161161191600284019160209091019061197b565b5060608201518160030160006101000a81548160ff021916908315150217905550905050336002846040518082805190602001908083835b602083106116685780518252601f199092019160209182019101611649565b51815160209384036101000a600019018019909216911617905292019485525060408051948590038201852080546001600160a01b0319166001600160a01b0397909716969096179095553380855284820186815289519686019690965288517fc1b20826100814ba286ac576fe980df1dbbcef3d904bb81f3d69a0e8280dc1149691958a95509350909160608401919085019080838360008315611018578181015183820152602001611000565b6000602081815291815260409081902080548251601f6002600019610100600186161502019093169290920491820185900485028101850190935280835290928391908301828280156117ab5780601f10611780576101008083540402835291602001916117ab565b820191906000526020600020905b81548152906001019060200180831161178e57829003601f168201915b505050505090806001018054600181600116156101000203166002900480601f0160208091040260200160405190810160405280929190818152602001828054600181600116156101000203166002900480156118495780601f1061181e57610100808354040283529160200191611849565b820191906000526020600020905b81548152906001019060200180831161182c57829003601f168201915b50505060028085018054604080516020601f60001961010060018716150201909416959095049283018590048502810185019091528181529596959450909250908301828280156118db5780601f106118b0576101008083540402835291602001916118db565b820191906000526020600020905b8154815290600101906020018083116118be57829003601f168201915b5050506003909301549192505060ff1684565b80516020818301810180516002825292820191909301209152546001600160a01b031681565b60016020818152600092835260409283902080548451600294821615610100026000190190911693909304601f81018390048302840183019094528383529283918301828280156117ab5780601f10611780576101008083540402835291602001916117ab565b828054600181600116156101000203166002900490600052602060002090601f016020900481019282601f106119bc57805160ff19168380011785556119e9565b828001600101855582156119e9579182015b828111156119e95782518255916020019190600101906119ce565b506119f5929150611a28565b5090565b6040518060a0016040528060608152602001600081526020016000815260200160008152602001606081525090565b5b808211156119f55760008155600101611a2956fea2646970667358221220138091992d43c9533d87166fc3e1bdd994140501c4e0e86e403080c1f2594a6264736f6c63430007000033",
  "immutableReferences": {},
  "source": "// SPDX-License-Identifier: MIT\r\npragma solidity ^0.7.0;\r\n\r\ncontract AcademicRecordManagement {\r\n    // Structs for Students and Lecturers\r\n    struct Student {\r\n        string matriculationNumber;\r\n        string name;\r\n        string email;\r\n        bool isRegistered;\r\n    }\r\n\r\n    struct Lecturer {\r\n        string staffID;\r\n        string name;\r\n        string email;\r\n        bool isRegistered;\r\n    }\r\n\r\n    // Struct for Grades\r\n    struct Grade {\r\n        string courseCode;\r\n        uint testScore;\r\n        uint examScore;\r\n        uint totalScore;\r\n        string finalGrade;\r\n    }\r\n\r\n    // Mapping of addresses to Students and Lecturers\r\n    mapping(address => Student) public students;\r\n    mapping(address => Lecturer) public lecturers;\r\n    mapping(string => address) public matricToStudentAddress; // New mapping from matriculation number to student address\r\n\r\n    // Nested mapping to store grades\r\n    mapping(address => mapping(string => Grade)) public studentGrades;\r\n\r\n    // Events\r\n    event StudentRegistered(address studentAddress, string matriculationNumber);\r\n    event LecturerRegistered(address lecturerAddress, string staffID);\r\n    event CourseRegistered(address studentAddress, string courseCode);\r\n    event GradeUploaded(address lecturerAddress, address studentAddress, string courseCode, string finalGrade);\r\n\r\n    // Modifier to check if the caller is a registered student\r\n    modifier onlyRegisteredStudent() {\r\n        require(students[msg.sender].isRegistered, \"Not a registered student\");\r\n        _;\r\n    }\r\n\r\n    // Modifier to check if the caller is a registered lecturer\r\n    modifier onlyRegisteredLecturer() {\r\n        require(lecturers[msg.sender].isRegistered, \"Not a registered lecturer\");\r\n        _;\r\n    }\r\n\r\n    // User Registration (Student and Lecturer)\r\n    function registerStudent(string memory _matriculationNumber, string memory _name, string memory _email) public {\r\n        require(!students[msg.sender].isRegistered, \"Student already registered\");\r\n        students[msg.sender] = Student(_matriculationNumber, _name, _email, true);\r\n        matricToStudentAddress[_matriculationNumber] = msg.sender; // Map matriculation number to student address\r\n        emit StudentRegistered(msg.sender, _matriculationNumber);\r\n    }\r\n\r\n    function registerLecturer(string memory _staffID, string memory _name, string memory _email) public {\r\n        require(!lecturers[msg.sender].isRegistered, \"Lecturer already registered\");\r\n        lecturers[msg.sender] = Lecturer(_staffID, _name, _email, true);\r\n        emit LecturerRegistered(msg.sender, _staffID);\r\n    }\r\n\r\n    // Course Registration (Student)\r\n    function registerCourse(string memory _courseCode) public onlyRegisteredStudent {\r\n        emit CourseRegistered(msg.sender, _courseCode);\r\n    }\r\n\r\n    // Grade Upload (Lecturer)\r\n    function uploadGrade(string memory _matriculationNumber, string memory _courseCode, uint _testScore, uint _examScore, uint _totalScore, string memory _finalGrade) public onlyRegisteredLecturer {\r\n        address studentAddress = matricToStudentAddress[_matriculationNumber]; // Get the student address from matriculation number\r\n        require(students[studentAddress].isRegistered, \"Student not registered\");\r\n        studentGrades[studentAddress][_courseCode] = Grade(_courseCode, _testScore, _examScore, _totalScore, _finalGrade);\r\n        emit GradeUploaded(msg.sender, studentAddress, _courseCode, _finalGrade);\r\n    }\r\n\r\n    // Result Checking (Student)\r\n    function checkResult(string memory _courseCode) public view onlyRegisteredStudent returns (uint, uint, uint, string memory) {\r\n        Grade memory grade = studentGrades[msg.sender][_courseCode];\r\n        return (grade.testScore, grade.examScore, grade.totalScore, grade.finalGrade);\r\n    }\r\n}\r\n",
  "sourcePath": "C:\\Users\\user\\Desktop\\Academic Record\\contracts\\AcademicRecordManagement.sol",
  "compiler": {
    "name": "solc",
    "version": "0.7.0+commit.9e61f92b.Emscripten.clang"
  },
  "schemaVersion": "3.4.16",
  "updatedAt": "2024-06-11T04:32:40.757Z",
  "networkType": "ethereum",
  "devdoc": {
    "kind": "dev",
    "methods": {},
    "version": 1
  },
  "userdoc": {
    "kind": "user",
    "methods": {},
    "version": 1
  }
}