{
  "contractName": "AcademicRecordManagement",
  "abi": [
    {
      "anonymous": false,
      "inputs": [
        {
          "indexed": false,
          "internalType": "address",
          "name": "studentAddress",
          "type": "address"
        },
        {
          "indexed": false,
          "internalType": "string",
          "name": "courseCode",
          "type": "string"
        },
        {
          "indexed": false,
          "internalType": "string",
          "name": "courseTitle",
          "type": "string"
        }
      ],
      "name": "CourseRegistered",
      "type": "event"
    },
    {
      "anonymous": false,
      "inputs": [
        {
          "indexed": false,
          "internalType": "address",
          "name": "lecturerAddress",
          "type": "address"
        },
        {
          "indexed": false,
          "internalType": "address",
          "name": "studentAddress",
          "type": "address"
        },
        {
          "indexed": false,
          "internalType": "string",
          "name": "courseCode",
          "type": "string"
        },
        {
          "indexed": false,
          "internalType": "string",
          "name": "finalGrade",
          "type": "string"
        }
      ],
      "name": "GradeUploaded",
      "type": "event"
    },
    {
      "anonymous": false,
      "inputs": [
        {
          "indexed": false,
          "internalType": "address",
          "name": "lecturerAddress",
          "type": "address"
        },
        {
          "indexed": false,
          "internalType": "string",
          "name": "courseCode",
          "type": "string"
        },
        {
          "indexed": false,
          "internalType": "string",
          "name": "courseTitle",
          "type": "string"
        }
      ],
      "name": "LecturerCourseRegistered",
      "type": "event"
    },
    {
      "anonymous": false,
      "inputs": [
        {
          "indexed": false,
          "internalType": "address",
          "name": "lecturerAddress",
          "type": "address"
        },
        {
          "indexed": false,
          "internalType": "string",
          "name": "staffID",
          "type": "string"
        }
      ],
      "name": "LecturerRegistered",
      "type": "event"
    },
    {
      "anonymous": false,
      "inputs": [
        {
          "indexed": false,
          "internalType": "address",
          "name": "studentAddress",
          "type": "address"
        },
        {
          "indexed": false,
          "internalType": "string",
          "name": "matriculationNumber",
          "type": "string"
        }
      ],
      "name": "StudentRegistered",
      "type": "event"
    },
    {
      "inputs": [
        {
          "internalType": "address",
          "name": "",
          "type": "address"
        }
      ],
      "name": "lecturers",
      "outputs": [
        {
          "internalType": "string",
          "name": "staffID",
          "type": "string"
        },
        {
          "internalType": "string",
          "name": "name",
          "type": "string"
        },
        {
          "internalType": "string",
          "name": "email",
          "type": "string"
        },
        {
          "internalType": "bool",
          "name": "isRegistered",
          "type": "bool"
        }
      ],
      "stateMutability": "view",
      "type": "function"
    },
    {
      "inputs": [
        {
          "internalType": "string",
          "name": "",
          "type": "string"
        }
      ],
      "name": "matricToStudentAddress",
      "outputs": [
        {
          "internalType": "address",
          "name": "",
          "type": "address"
        }
      ],
      "stateMutability": "view",
      "type": "function"
    },
    {
      "inputs": [
        {
          "internalType": "address",
          "name": "",
          "type": "address"
        },
        {
          "internalType": "string",
          "name": "",
          "type": "string"
        }
      ],
      "name": "studentGrades",
      "outputs": [
        {
          "internalType": "string",
          "name": "courseCode",
          "type": "string"
        },
        {
          "internalType": "string",
          "name": "courseTitle",
          "type": "string"
        },
        {
          "internalType": "uint256",
          "name": "test1Score",
          "type": "uint256"
        },
        {
          "internalType": "uint256",
          "name": "test2Score",
          "type": "uint256"
        },
        {
          "internalType": "uint256",
          "name": "examScore",
          "type": "uint256"
        },
        {
          "internalType": "uint256",
          "name": "totalScore",
          "type": "uint256"
        },
        {
          "internalType": "string",
          "name": "finalGrade",
          "type": "string"
        }
      ],
      "stateMutability": "view",
      "type": "function"
    },
    {
      "inputs": [
        {
          "internalType": "address",
          "name": "",
          "type": "address"
        }
      ],
      "name": "students",
      "outputs": [
        {
          "internalType": "string",
          "name": "matriculationNumber",
          "type": "string"
        },
        {
          "internalType": "string",
          "name": "name",
          "type": "string"
        },
        {
          "internalType": "string",
          "name": "email",
          "type": "string"
        },
        {
          "internalType": "bool",
          "name": "isRegistered",
          "type": "bool"
        }
      ],
      "stateMutability": "view",
      "type": "function"
    },
    {
      "inputs": [
        {
          "internalType": "string",
          "name": "_matriculationNumber",
          "type": "string"
        },
        {
          "internalType": "string",
          "name": "_name",
          "type": "string"
        },
        {
          "internalType": "string",
          "name": "_email",
          "type": "string"
        }
      ],
      "name": "registerStudent",
      "outputs": [],
      "stateMutability": "nonpayable",
      "type": "function"
    },
    {
      "inputs": [
        {
          "internalType": "string",
          "name": "_staffID",
          "type": "string"
        },
        {
          "internalType": "string",
          "name": "_name",
          "type": "string"
        },
        {
          "internalType": "string",
          "name": "_email",
          "type": "string"
        }
      ],
      "name": "registerLecturer",
      "outputs": [],
      "stateMutability": "nonpayable",
      "type": "function"
    },
    {
      "inputs": [
        {
          "internalType": "string",
          "name": "_courseCode",
          "type": "string"
        },
        {
          "internalType": "string",
          "name": "_courseTitle",
          "type": "string"
        }
      ],
      "name": "registerCourse",
      "outputs": [],
      "stateMutability": "nonpayable",
      "type": "function"
    },
    {
      "inputs": [
        {
          "internalType": "string",
          "name": "_courseCode",
          "type": "string"
        },
        {
          "internalType": "string",
          "name": "_courseTitle",
          "type": "string"
        }
      ],
      "name": "registerCourseLecturer",
      "outputs": [],
      "stateMutability": "nonpayable",
      "type": "function"
    },
    {
      "inputs": [
        {
          "internalType": "string",
          "name": "_matriculationNumber",
          "type": "string"
        },
        {
          "internalType": "string",
          "name": "_courseCode",
          "type": "string"
        },
        {
          "internalType": "string",
          "name": "_courseTitle",
          "type": "string"
        },
        {
          "internalType": "uint256",
          "name": "_test1Score",
          "type": "uint256"
        },
        {
          "internalType": "uint256",
          "name": "_test2Score",
          "type": "uint256"
        },
        {
          "internalType": "uint256",
          "name": "_examScore",
          "type": "uint256"
        }
      ],
      "name": "uploadGrade",
      "outputs": [],
      "stateMutability": "nonpayable",
      "type": "function"
    },
    {
      "inputs": [
        {
          "internalType": "string",
          "name": "_courseCode",
          "type": "string"
        }
      ],
      "name": "checkResult",
      "outputs": [
        {
          "internalType": "uint256",
          "name": "",
          "type": "uint256"
        },
        {
          "internalType": "uint256",
          "name": "",
          "type": "uint256"
        },
        {
          "internalType": "uint256",
          "name": "",
          "type": "uint256"
        },
        {
          "internalType": "uint256",
          "name": "",
          "type": "uint256"
        },
        {
          "internalType": "string",
          "name": "",
          "type": "string"
        }
      ],
      "stateMutability": "view",
      "type": "function"
    }
  ],
  "bytecode": "0x608060405234801561001057600080fd5b50612b8b806100206000396000f3fe608060405234801561001057600080fd5b506004361061009e5760003560e01c8063784e4a3a11610066578063784e4a3a1461097d57806393e47f1514610acf578063a6c807a914610cb8578063ed6a293914610e56578063fc92506014610f3b5761009e565b80630fd88c7a146100a357806314748735146101f55780631de378ec146103de5780631debe9c31461062657806346834d1e1461082d575b600080fd5b6101f3600480360360408110156100b957600080fd5b81019080803590602001906401000000008111156100d657600080fd5b8201836020820111156100e857600080fd5b8035906020019184600183028401116401000000008311171561010a57600080fd5b91908080601f016020809104026020016040519081016040528093929190818152602001838380828437600081840152601f19601f8201169050808301925050505050505091929192908035906020019064010000000081111561016d57600080fd5b82018360208201111561017f57600080fd5b803590602001918460018302840111640100000000831117156101a157600080fd5b91908080601f016020809104026020016040519081016040528093929190818152602001838380828437600081840152601f19601f8201169050808301925050505050505091929192905050506110d9565b005b6103dc6004803603606081101561020b57600080fd5b810190808035906020019064010000000081111561022857600080fd5b82018360208201111561023a57600080fd5b8035906020019184600183028401116401000000008311171561025c57600080fd5b91908080601f016020809104026020016040519081016040528093929190818152602001838380828437600081840152601f19601f820116905080830192505050505050509192919290803590602001906401000000008111156102bf57600080fd5b8201836020820111156102d157600080fd5b803590602001918460018302840111640100000000831117156102f357600080fd5b91908080601f016020809104026020016040519081016040528093929190818152602001838380828437600081840152601f19601f8201169050808301925050505050505091929192908035906020019064010000000081111561035657600080fd5b82018360208201111561036857600080fd5b8035906020019184600183028401116401000000008311171561038a57600080fd5b91908080601f016020809104026020016040519081016040528093929190818152602001838380828437600081840152601f19601f8201169050808301925050505050505091929192905050506112c5565b005b6104b7600480360360408110156103f457600080fd5b81019080803573ffffffffffffffffffffffffffffffffffffffff1690602001909291908035906020019064010000000081111561043157600080fd5b82018360208201111561044357600080fd5b8035906020019184600183028401116401000000008311171561046557600080fd5b91908080601f016020809104026020016040519081016040528093929190818152602001838380828437600081840152601f19601f820116905080830192505050505050509192919290505050611524565b6040518080602001806020018881526020018781526020018681526020018581526020018060200184810384528b818151815260200191508051906020019080838360005b838110156105175780820151818401526020810190506104fc565b50505050905090810190601f1680156105445780820380516001836020036101000a031916815260200191505b5084810383528a818151815260200191508051906020019080838360005b8381101561057d578082015181840152602081019050610562565b50505050905090810190601f1680156105aa5780820380516001836020036101000a031916815260200191505b50848103825285818151815260200191508051906020019080838360005b838110156105e35780820151818401526020810190506105c8565b50505050905090810190601f1680156106105780820380516001836020036101000a031916815260200191505b509a505050505050505050505060405180910390f35b61082b600480360360c081101561063c57600080fd5b810190808035906020019064010000000081111561065957600080fd5b82018360208201111561066b57600080fd5b8035906020019184600183028401116401000000008311171561068d57600080fd5b91908080601f016020809104026020016040519081016040528093929190818152602001838380828437600081840152601f19601f820116905080830192505050505050509192919290803590602001906401000000008111156106f057600080fd5b82018360208201111561070257600080fd5b8035906020019184600183028401116401000000008311171561072457600080fd5b91908080601f016020809104026020016040519081016040528093929190818152602001838380828437600081840152601f19601f8201169050808301925050505050505091929192908035906020019064010000000081111561078757600080fd5b82018360208201111561079957600080fd5b803590602001918460018302840111640100000000831117156107bb57600080fd5b91908080601f016020809104026020016040519081016040528093929190818152602001838380828437600081840152601f19601f820116905080830192505050505050509192919290803590602001909291908035906020019092919080359060200190929190505050611751565b005b6108e66004803603602081101561084357600080fd5b810190808035906020019064010000000081111561086057600080fd5b82018360208201111561087257600080fd5b8035906020019184600183028401116401000000008311171561089457600080fd5b91908080601f016020809104026020016040519081016040528093929190818152602001838380828437600081840152601f19601f820116905080830192505050505050509192919290505050611c23565b6040518086815260200185815260200184815260200183815260200180602001828103825283818151815260200191508051906020019080838360005b8381101561093e578082015181840152602081019050610923565b50505050905090810190601f16801561096b5780820380516001836020036101000a031916815260200191505b50965050505050505060405180910390f35b610acd6004803603604081101561099357600080fd5b81019080803590602001906401000000008111156109b057600080fd5b8201836020820111156109c257600080fd5b803590602001918460018302840111640100000000831117156109e457600080fd5b91908080601f016020809104026020016040519081016040528093929190818152602001838380828437600081840152601f19601f82011690508083019250505050505050919291929080359060200190640100000000811115610a4757600080fd5b820183602082011115610a5957600080fd5b80359060200191846001830284011164010000000083111715610a7b57600080fd5b91908080601f016020809104026020016040519081016040528093929190818152602001838380828437600081840152601f19601f820116905080830192505050505050509192919290505050611fe2565b005b610cb660048036036060811015610ae557600080fd5b8101908080359060200190640100000000811115610b0257600080fd5b820183602082011115610b1457600080fd5b80359060200191846001830284011164010000000083111715610b3657600080fd5b91908080601f016020809104026020016040519081016040528093929190818152602001838380828437600081840152601f19601f82011690508083019250505050505050919291929080359060200190640100000000811115610b9957600080fd5b820183602082011115610bab57600080fd5b80359060200191846001830284011164010000000083111715610bcd57600080fd5b91908080601f016020809104026020016040519081016040528093929190818152602001838380828437600081840152601f19601f82011690508083019250505050505050919291929080359060200190640100000000811115610c3057600080fd5b820183602082011115610c4257600080fd5b80359060200191846001830284011164010000000083111715610c6457600080fd5b91908080601f016020809104026020016040519081016040528093929190818152602001838380828437600081840152601f19601f8201169050808301925050505050505091929192905050506121cf565b005b610cfa60048036036020811015610cce57600080fd5b81019080803573ffffffffffffffffffffffffffffffffffffffff1690602001909291905050506124d4565b604051808060200180602001806020018515158152602001848103845288818151815260200191508051906020019080838360005b83811015610d4a578082015181840152602081019050610d2f565b50505050905090810190601f168015610d775780820380516001836020036101000a031916815260200191505b50848103835287818151815260200191508051906020019080838360005b83811015610db0578082015181840152602081019050610d95565b50505050905090810190601f168015610ddd5780820380516001836020036101000a031916815260200191505b50848103825286818151815260200191508051906020019080838360005b83811015610e16578082015181840152602081019050610dfb565b50505050905090810190601f168015610e435780820380516001836020036101000a031916815260200191505b5097505050505050505060405180910390f35b610f0f60048036036020811015610e6c57600080fd5b8101908080359060200190640100000000811115610e8957600080fd5b820183602082011115610e9b57600080fd5b80359060200191846001830284011164010000000083111715610ebd57600080fd5b91908080601f016020809104026020016040519081016040528093929190818152602001838380828437600081840152601f19601f8201169050808301925050505050505091929192905050506126d9565b604051808273ffffffffffffffffffffffffffffffffffffffff16815260200191505060405180910390f35b610f7d60048036036020811015610f5157600080fd5b81019080803573ffffffffffffffffffffffffffffffffffffffff169060200190929190505050612722565b604051808060200180602001806020018515158152602001848103845288818151815260200191508051906020019080838360005b83811015610fcd578082015181840152602081019050610fb2565b50505050905090810190601f168015610ffa5780820380516001836020036101000a031916815260200191505b50848103835287818151815260200191508051906020019080838360005b83811015611033578082015181840152602081019050611018565b50505050905090810190601f1680156110605780820380516001836020036101000a031916815260200191505b50848103825286818151815260200191508051906020019080838360005b8381101561109957808201518184015260208101905061107e565b50505050905090810190601f1680156110c65780820380516001836020036101000a031916815260200191505b5097505050505050505060405180910390f35b6000803373ffffffffffffffffffffffffffffffffffffffff1673ffffffffffffffffffffffffffffffffffffffff16815260200190815260200160002060030160009054906101000a900460ff1661119a576040517f08c379a00000000000000000000000000000000000000000000000000000000081526004018080602001828103825260188152602001807f4e6f74206120726567697374657265642073747564656e74000000000000000081525060200191505060405180910390fd5b7f04f7191ded0810859b312f2db2a0df46ada81d5e43a0002bf63d98f05cb21c3f338383604051808473ffffffffffffffffffffffffffffffffffffffff1681526020018060200180602001838103835285818151815260200191508051906020019080838360005b8381101561121e578082015181840152602081019050611203565b50505050905090810190601f16801561124b5780820380516001836020036101000a031916815260200191505b50838103825284818151815260200191508051906020019080838360005b83811015611284578082015181840152602081019050611269565b50505050905090810190601f1680156112b15780820380516001836020036101000a031916815260200191505b509550505050505060405180910390a15050565b600160003373ffffffffffffffffffffffffffffffffffffffff1673ffffffffffffffffffffffffffffffffffffffff16815260200190815260200160002060030160009054906101000a900460ff1615611388576040517f08c379a000000000000000000000000000000000000000000000000000000000815260040180806020018281038252601b8152602001807f4c6563747572657220616c72656164792072656769737465726564000000000081525060200191505060405180910390fd5b604051806080016040528084815260200183815260200182815260200160011515815250600160003373ffffffffffffffffffffffffffffffffffffffff1673ffffffffffffffffffffffffffffffffffffffff1681526020019081526020016000206000820151816000019080519060200190611407929190612a7b565b506020820151816001019080519060200190611424929190612a7b565b506040820151816002019080519060200190611441929190612a7b565b5060608201518160030160006101000a81548160ff0219169083151502179055509050507fe5438f3a6b5d89df19bf35dfee2aa60039b9278f4bbb8752d2a6c66f18c941803384604051808373ffffffffffffffffffffffffffffffffffffffff16815260200180602001828103825283818151815260200191508051906020019080838360005b838110156114e45780820151818401526020810190506114c9565b50505050905090810190601f1680156115115780820380516001836020036101000a031916815260200191505b50935050505060405180910390a1505050565b60036020528160005260406000208180516020810182018051848252602083016020850120818352809550505050505060009150915050806000018054600181600116156101000203166002900480601f0160208091040260200160405190810160405280929190818152602001828054600181600116156101000203166002900480156115f35780601f106115c8576101008083540402835291602001916115f3565b820191906000526020600020905b8154815290600101906020018083116115d657829003601f168201915b505050505090806001018054600181600116156101000203166002900480601f0160208091040260200160405190810160405280929190818152602001828054600181600116156101000203166002900480156116915780601f1061166657610100808354040283529160200191611691565b820191906000526020600020905b81548152906001019060200180831161167457829003601f168201915b505050505090806002015490806003015490806004015490806005015490806006018054600181600116156101000203166002900480601f0160208091040260200160405190810160405280929190818152602001828054600181600116156101000203166002900480156117475780601f1061171c57610100808354040283529160200191611747565b820191906000526020600020905b81548152906001019060200180831161172a57829003601f168201915b5050505050905087565b600160003373ffffffffffffffffffffffffffffffffffffffff1673ffffffffffffffffffffffffffffffffffffffff16815260200190815260200160002060030160009054906101000a900460ff16611813576040517f08c379a00000000000000000000000000000000000000000000000000000000081526004018080602001828103825260198152602001807f4e6f7420612072656769737465726564206c656374757265720000000000000081525060200191505060405180910390fd5b60006002876040518082805190602001908083835b6020831061184b5780518252602082019150602081019050602083039250611828565b6001836020036101000a038019825116818451168082178552505050505050905001915050908152602001604051809103902060009054906101000a900473ffffffffffffffffffffffffffffffffffffffff1690506000808273ffffffffffffffffffffffffffffffffffffffff1673ffffffffffffffffffffffffffffffffffffffff16815260200190815260200160002060030160009054906101000a900460ff16611962576040517f08c379a00000000000000000000000000000000000000000000000000000000081526004018080602001828103825260168152602001807f53747564656e74206e6f7420726567697374657265640000000000000000000081525060200191505060405180910390fd5b600082848601019050606061197682612927565b90506040518060e0016040528089815260200188815260200187815260200186815260200185815260200183815260200182815250600360008573ffffffffffffffffffffffffffffffffffffffff1673ffffffffffffffffffffffffffffffffffffffff168152602001908152602001600020896040518082805190602001908083835b60208310611a1e57805182526020820191506020810190506020830392506119fb565b6001836020036101000a03801982511681845116808217855250505050505090500191505090815260200160405180910390206000820151816000019080519060200190611a6d929190612a7b565b506020820151816001019080519060200190611a8a929190612a7b565b5060408201518160020155606082015181600301556080820151816004015560a0820151816005015560c0820151816006019080519060200190611acf929190612a7b565b509050507ff91a5074d56d94c8d84bb17dfe9a625d45ff1e2248d33717eb1500091a70cb6b33848a84604051808573ffffffffffffffffffffffffffffffffffffffff1681526020018473ffffffffffffffffffffffffffffffffffffffff1681526020018060200180602001838103835285818151815260200191508051906020019080838360005b83811015611b74578082015181840152602081019050611b59565b50505050905090810190601f168015611ba15780820380516001836020036101000a031916815260200191505b50838103825284818151815260200191508051906020019080838360005b83811015611bda578082015181840152602081019050611bbf565b50505050905090810190601f168015611c075780820380516001836020036101000a031916815260200191505b50965050505050505060405180910390a1505050505050505050565b60008060008060606000803373ffffffffffffffffffffffffffffffffffffffff1673ffffffffffffffffffffffffffffffffffffffff16815260200190815260200160002060030160009054906101000a900460ff16611cec576040517f08c379a00000000000000000000000000000000000000000000000000000000081526004018080602001828103825260188152602001807f4e6f74206120726567697374657265642073747564656e74000000000000000081525060200191505060405180910390fd5b611cf4612afb565b600360003373ffffffffffffffffffffffffffffffffffffffff1673ffffffffffffffffffffffffffffffffffffffff168152602001908152602001600020876040518082805190602001908083835b60208310611d675780518252602082019150602081019050602083039250611d44565b6001836020036101000a03801982511681845116808217855250505050505090500191505090815260200160405180910390206040518060e0016040529081600082018054600181600116156101000203166002900480601f016020809104026020016040519081016040528092919081815260200182805460018160011615610100020316600290048015611e3e5780601f10611e1357610100808354040283529160200191611e3e565b820191906000526020600020905b815481529060010190602001808311611e2157829003601f168201915b50505050508152602001600182018054600181600116156101000203166002900480601f016020809104026020016040519081016040528092919081815260200182805460018160011615610100020316600290048015611ee05780601f10611eb557610100808354040283529160200191611ee0565b820191906000526020600020905b815481529060010190602001808311611ec357829003601f168201915b5050505050815260200160028201548152602001600382015481526020016004820154815260200160058201548152602001600682018054600181600116156101000203166002900480601f016020809104026020016040519081016040528092919081815260200182805460018160011615610100020316600290048015611faa5780601f10611f7f57610100808354040283529160200191611faa565b820191906000526020600020905b815481529060010190602001808311611f8d57829003601f168201915b50505050508152505090508060400151816060015182608001518360a001518460c00151955095509550955095505091939590929450565b600160003373ffffffffffffffffffffffffffffffffffffffff1673ffffffffffffffffffffffffffffffffffffffff16815260200190815260200160002060030160009054906101000a900460ff166120a4576040517f08c379a00000000000000000000000000000000000000000000000000000000081526004018080602001828103825260198152602001807f4e6f7420612072656769737465726564206c656374757265720000000000000081525060200191505060405180910390fd5b7f8983ce1990618537eccc13f7607f554be0359d61b8c35fce3e1113e2b76b8c74338383604051808473ffffffffffffffffffffffffffffffffffffffff1681526020018060200180602001838103835285818151815260200191508051906020019080838360005b8381101561212857808201518184015260208101905061210d565b50505050905090810190601f1680156121555780820380516001836020036101000a031916815260200191505b50838103825284818151815260200191508051906020019080838360005b8381101561218e578082015181840152602081019050612173565b50505050905090810190601f1680156121bb5780820380516001836020036101000a031916815260200191505b509550505050505060405180910390a15050565b6000803373ffffffffffffffffffffffffffffffffffffffff1673ffffffffffffffffffffffffffffffffffffffff16815260200190815260200160002060030160009054906101000a900460ff1615612291576040517f08c379a000000000000000000000000000000000000000000000000000000000815260040180806020018281038252601a8152602001807f53747564656e7420616c7265616479207265676973746572656400000000000081525060200191505060405180910390fd5b6040518060800160405280848152602001838152602001828152602001600115158152506000803373ffffffffffffffffffffffffffffffffffffffff1673ffffffffffffffffffffffffffffffffffffffff168152602001908152602001600020600082015181600001908051906020019061230f929190612a7b565b50602082015181600101908051906020019061232c929190612a7b565b506040820151816002019080519060200190612349929190612a7b565b5060608201518160030160006101000a81548160ff021916908315150217905550905050336002846040518082805190602001908083835b602083106123a45780518252602082019150602081019050602083039250612381565b6001836020036101000a038019825116818451168082178552505050505050905001915050908152602001604051809103902060006101000a81548173ffffffffffffffffffffffffffffffffffffffff021916908373ffffffffffffffffffffffffffffffffffffffff1602179055507fc1b20826100814ba286ac576fe980df1dbbcef3d904bb81f3d69a0e8280dc1143384604051808373ffffffffffffffffffffffffffffffffffffffff16815260200180602001828103825283818151815260200191508051906020019080838360005b83811015612494578082015181840152602081019050612479565b50505050905090810190601f1680156124c15780820380516001836020036101000a031916815260200191505b50935050505060405180910390a1505050565b6000602052806000526040600020600091509050806000018054600181600116156101000203166002900480601f0160208091040260200160405190810160405280929190818152602001828054600181600116156101000203166002900480156125805780601f1061255557610100808354040283529160200191612580565b820191906000526020600020905b81548152906001019060200180831161256357829003601f168201915b505050505090806001018054600181600116156101000203166002900480601f01602080910402602001604051908101604052809291908181526020018280546001816001161561010002031660029004801561261e5780601f106125f35761010080835404028352916020019161261e565b820191906000526020600020905b81548152906001019060200180831161260157829003601f168201915b505050505090806002018054600181600116156101000203166002900480601f0160208091040260200160405190810160405280929190818152602001828054600181600116156101000203166002900480156126bc5780601f10612691576101008083540402835291602001916126bc565b820191906000526020600020905b81548152906001019060200180831161269f57829003601f168201915b5050505050908060030160009054906101000a900460ff16905084565b6002818051602081018201805184825260208301602085012081835280955050505050506000915054906101000a900473ffffffffffffffffffffffffffffffffffffffff1681565b6001602052806000526040600020600091509050806000018054600181600116156101000203166002900480601f0160208091040260200160405190810160405280929190818152602001828054600181600116156101000203166002900480156127ce5780601f106127a3576101008083540402835291602001916127ce565b820191906000526020600020905b8154815290600101906020018083116127b157829003601f168201915b505050505090806001018054600181600116156101000203166002900480601f01602080910402602001604051908101604052809291908181526020018280546001816001161561010002031660029004801561286c5780601f106128415761010080835404028352916020019161286c565b820191906000526020600020905b81548152906001019060200180831161284f57829003601f168201915b505050505090806002018054600181600116156101000203166002900480601f01602080910402602001604051908101604052809291908181526020018280546001816001161561010002031660029004801561290a5780601f106128df5761010080835404028352916020019161290a565b820191906000526020600020905b8154815290600101906020018083116128ed57829003601f168201915b5050505050908060030160009054906101000a900460ff16905084565b6060605a821061296e576040518060400160405280600181526020017f41000000000000000000000000000000000000000000000000000000000000008152509050612a76565b605082106129b3576040518060400160405280600181526020017f42000000000000000000000000000000000000000000000000000000000000008152509050612a76565b604682106129f8576040518060400160405280600181526020017f43000000000000000000000000000000000000000000000000000000000000008152509050612a76565b603c8210612a3d576040518060400160405280600181526020017f44000000000000000000000000000000000000000000000000000000000000008152509050612a76565b6040518060400160405280600181526020017f460000000000000000000000000000000000000000000000000000000000000081525090505b919050565b828054600181600116156101000203166002900490600052602060002090601f016020900481019282601f10612abc57805160ff1916838001178555612aea565b82800160010185558215612aea579182015b82811115612ae9578251825591602001919060010190612ace565b5b509050612af79190612b38565b5090565b6040518060e00160405280606081526020016060815260200160008152602001600081526020016000815260200160008152602001606081525090565b5b80821115612b51576000816000905550600101612b39565b509056fea264697066735822122060514ac3131fa9eb4b30b02643ba8c058a9a100d1c8d9c93b87ea888e5dca09b64736f6c63430007000033",
  "immutableReferences": {},
  "source": "// SPDX-License-Identifier: MIT\r\npragma solidity ^0.7.0;\r\n\r\ncontract AcademicRecordManagement {\r\n    // Structs for Students and Lecturers\r\n    struct Student {\r\n        string matriculationNumber;\r\n        string name;\r\n        string email;\r\n        bool isRegistered;\r\n    }\r\n\r\n    struct Lecturer {\r\n        string staffID;\r\n        string name;\r\n        string email;\r\n        bool isRegistered;\r\n    }\r\n\r\n    // Struct for Grades\r\n    struct Grade {\r\n        string courseCode;\r\n        string courseTitle;\r\n        uint test1Score;\r\n        uint test2Score;\r\n        uint examScore;\r\n        uint totalScore;\r\n        string finalGrade;\r\n    }\r\n\r\n    // Mapping of addresses to Students and Lecturers\r\n    mapping(address => Student) public students;\r\n    mapping(address => Lecturer) public lecturers;\r\n    mapping(string => address) public matricToStudentAddress; // Mapping from matriculation number to student address\r\n\r\n    // Nested mapping to store grades\r\n    mapping(address => mapping(string => Grade)) public studentGrades;\r\n\r\n    // Events\r\n    event StudentRegistered(address studentAddress, string matriculationNumber);\r\n    event LecturerRegistered(address lecturerAddress, string staffID);\r\n    event CourseRegistered(address studentAddress, string courseCode, string courseTitle);\r\n    event LecturerCourseRegistered(address lecturerAddress, string courseCode, string courseTitle);\r\n    event GradeUploaded(address lecturerAddress, address studentAddress, string courseCode, string finalGrade);\r\n\r\n    // Modifier to check if the caller is a registered student\r\n    modifier onlyRegisteredStudent() {\r\n        require(students[msg.sender].isRegistered, \"Not a registered student\");\r\n        _;\r\n    }\r\n\r\n    // Modifier to check if the caller is a registered lecturer\r\n    modifier onlyRegisteredLecturer() {\r\n        require(lecturers[msg.sender].isRegistered, \"Not a registered lecturer\");\r\n        _;\r\n    }\r\n\r\n    // User Registration (Student and Lecturer)\r\n    function registerStudent(string memory _matriculationNumber, string memory _name, string memory _email) public {\r\n        require(!students[msg.sender].isRegistered, \"Student already registered\");\r\n        students[msg.sender] = Student(_matriculationNumber, _name, _email, true);\r\n        matricToStudentAddress[_matriculationNumber] = msg.sender; // Map matriculation number to student address\r\n        emit StudentRegistered(msg.sender, _matriculationNumber);\r\n    }\r\n\r\n    // User Registration (Lecturer)\r\n    function registerLecturer(string memory _staffID, string memory _name, string memory _email) public {\r\n        require(!lecturers[msg.sender].isRegistered, \"Lecturer already registered\");\r\n        lecturers[msg.sender] = Lecturer(_staffID, _name, _email, true);\r\n        emit LecturerRegistered(msg.sender, _staffID);\r\n    }\r\n\r\n    // Course Registration (Student)\r\n    function registerCourse(string memory _courseCode, string memory _courseTitle) public onlyRegisteredStudent {\r\n        emit CourseRegistered(msg.sender, _courseCode, _courseTitle);\r\n    }\r\n\r\n    // Course Registration (Lecturer)\r\n    function registerCourseLecturer(string memory _courseCode, string memory _courseTitle) public onlyRegisteredLecturer {\r\n        emit LecturerCourseRegistered(msg.sender, _courseCode, _courseTitle);\r\n    }\r\n\r\n    // Grade Upload (Lecturer)\r\n    function uploadGrade(\r\n        string memory _matriculationNumber,\r\n        string memory _courseCode,\r\n        string memory _courseTitle,\r\n        uint _test1Score,\r\n        uint _test2Score,\r\n        uint _examScore\r\n    ) public onlyRegisteredLecturer {\r\n        address studentAddress = matricToStudentAddress[_matriculationNumber]; // Get the student address from matriculation number\r\n        require(students[studentAddress].isRegistered, \"Student not registered\");\r\n\r\n        uint totalScore = _test1Score + _test2Score + _examScore;\r\n        string memory finalGrade = calculateFinalGrade(totalScore);\r\n\r\n        studentGrades[studentAddress][_courseCode] = Grade(\r\n            _courseCode,\r\n            _courseTitle,\r\n            _test1Score,\r\n            _test2Score,\r\n            _examScore,\r\n            totalScore,\r\n            finalGrade\r\n        );\r\n        emit GradeUploaded(msg.sender, studentAddress, _courseCode, finalGrade);\r\n    }\r\n\r\n    // Result Checking (Student)\r\n    function checkResult(string memory _courseCode) public view onlyRegisteredStudent returns (uint, uint, uint, uint, string memory) {\r\n        Grade memory grade = studentGrades[msg.sender][_courseCode];\r\n        return (grade.test1Score, grade.test2Score, grade.examScore, grade.totalScore, grade.finalGrade);\r\n    }\r\n\r\n    // Internal function to calculate the final grade based on total score\r\n    function calculateFinalGrade(uint totalScore) internal pure returns (string memory) {\r\n        if (totalScore >= 90) {\r\n            return \"A\";\r\n        } else if (totalScore >= 80) {\r\n            return \"B\";\r\n        } else if (totalScore >= 70) {\r\n            return \"C\";\r\n        } else if (totalScore >= 60) {\r\n            return \"D\";\r\n        } else {\r\n            return \"F\";\r\n        }\r\n    }\r\n}\r\n",
  "sourcePath": "C:\\Users\\user\\Desktop\\work\\contracts\\AcademicRecordManagement.sol",
  "compiler": {
    "name": "solc",
    "version": "0.7.0+commit.9e61f92b.Emscripten.clang"
  },
  "schemaVersion": "3.4.16",
  "updatedAt": "2024-06-15T01:38:21.084Z",
  "devdoc": {
    "kind": "dev",
    "methods": {},
    "version": 1
  },
  "userdoc": {
    "kind": "user",
    "methods": {},
    "version": 1
  }
}